:100000000C944C000C9456000C9456000C94560022
:100010000C9456000C9456000C9456000C94560008
:100020000C9456000C9456000C9456000C945600F8
:100030000C9456000C9456000C9456000C945600E8
:100040000C9456000C9456000C9456000C945600D8
:100050000C9456000C9456000C9456000C945600C8
:100060000C9456000C9456000C9456000C945600B8
:100070000C9456000C9456000C9456000C945600A8
:100080000C9456000C9456000C9456000C94560098
:100090000C9456000C94560011241FBECFEFD0E2F2
:1000A000DEBFCDBF0E9458000C9473000C9400007A
:1000B00080E8809361001092610084B985B92FEFC8
:1000C00031EE94E0215030409040E1F700C0000054
:1000D00015B82FEF31EE94E0215030409040E1F719
:0A00E00000C00000EBCFF894FFCF42
:00000001FF
