:100000000C943A010C9459010C9459010C94590127
:100010000C9459010C9459010C9459010C945901F8
:100020000C9459010C9459010C9459010C945901E8
:100030000C9459010C9459010C9459010C945901D8
:100040000C9459010C94DF010C9459010C94590142
:100050000C9459010C9459010C9459010C945901B8
:100060000C9459010C9459010C9459010C945901A8
:100070000C9459010C9459010C9459010C94590198
:100080000C9459010C9459010C9459010C94590188
:100090000C9459010C945901000000000000005F0D
:1000A00000000003000300143E143E14242A7F2A9B
:1000B000124333086661364955225000050300009B
:1000C000001C2241000041221C0014083E081408B4
:1000D000083E0808005030000008080808080060C2
:1000E00060000020100804023E5149453E00040211
:1000F0007F00426151494622414949361814127F16
:100100001027454545393E494949320101710907E2
:100110003649494936264949493E003636000000ED
:10012000563600000814224100141414141400411F
:1001300022140802015109063E4159555E7E090903
:10014000097E7F494949363E414141227F41414133
:100150003E7F494949417F090909013E4141493AE8
:100160007F0808087F00417F4100304040403F7FCA
:10017000081422417F404040407F020C027F7F02F2
:1001800004087F3E4141413E7F090909061E2121A5
:10019000215E7F09090976264949493201017F011B
:1001A000013F4040403F1F2040201F7F2010207F04
:1001B00041221C224107087008076151494543004C
:1001C0007F41000002040810200000417F0004026B
:1001D0000102044040404040000102040020545409
:1001E00054787F4444443838444444443844444474
:1001F0007F385454541804047E0505085454543C64
:100200007F0804047800447D40002040443D007F86
:100210001028440000417F40007C047804787C086A
:1002200004047838444444387C1414140808141422
:10023000147C007C080404485454542004043F44B3
:10024000443C4040207C1C2040201C3C4030403C32
:1002500044281028440C5050503C4464544C4400F2
:100260000836414100007F0000414136080002018C
:100270000204020011241FBECFEFD0E2DEBFCDBFCB
:1002800011E0A0E0B1E0E4E6F2E100E00BBF02C063
:1002900007900D92AE34B107D9F712E0AEE4B1E0A9
:1002A00001C01D92A537B107E1F70E94AD070C947C
:1002B00030090C940000CF93DF93EC0160E070E014
:1002C00087EA98ED0E9447062EE231E03F932F9394
:1002D0000E94A4068FE39CE90197F1F700C000009B
:1002E00060E070E087EA98ED0E94470623E331E082
:1002F0003F932F930E94A4060F900F900F900F90A2
:10030000CE010196DF91CF910895CF93DF93EC0159
:1003100060E070E080EA9EEF0E94470628E331E04B
:100320003F932F930E94A4062FEF85EA9EE0215071
:1003300080409040E1F700C0000060E070E080EA9B
:100340009EEF0E9447062DE331E03F932F930E94DA
:10035000A4060F900F900F900F90CE010196DF91A1
:10036000CF910895CF93DF93EC0160E070E081E5D9
:1003700094E00E94470622E431E03F932F930E94CD
:10038000A4062FEF83ED90E3215080409040E1F7E9
:1003900000C0000060E070E081E594E00E94470644
:1003A00027E431E03F932F930E94A4060F900F9013
:1003B0000F900F90CE010196DF91CF9108951F927B
:1003C0000F920FB60F9211240BB60F92CF92DF92BD
:1003D000EF92FF920F931F932F933F934F935F934F
:1003E0006F937F938F939F93AF93BF93CF93DF933D
:1003F000EF93FF93F12C8DE0E82EDD24D394CC24F1
:10040000CA94CF2DD0E080911501992787FD909552
:100410008C179D070CF47BC0EC9EF001ED9EF00D57
:100420001124ED59FE4F4781508561857285838186
:100430009481A581B681481759076A077B0708F49C
:100440004BC0A0915001B0E0A050BF4F8C91F81666
:1004500008F042C0808181113FC0F894EC9EF00109
:10046000ED9EF00D1124ED59FE4F17821086118676
:100470001286D082E0915001EF5FE0935001F0E0EE
:10048000E050FF4FF0827894EC9E8001ED9E100DBD
:1004900011240D591E4FD8011B96ED91FC911C970C
:1004A00011968D919C9112970995F8019283818301
:1004B000F894EC9EF001ED9EF00D1124ED59FE4FE5
:1004C000108280915001E82FF0E0E050FF4FC08291
:1004D0008150809350017894EC9EF001ED9EF00DD8
:1004E0001124ED59FE4F87819085A185B2854996EB
:1004F000A11DB11D87839087A187B287809150018C
:10050000811102C02F9A01C02F98F3947ACF60E036
:1005100070E08BE494E30E9447068CE491E09F93A3
:100520008F930E94A4060F900F90FF91EF91DF919F
:10053000CF91BF91AF919F918F917F916F915F917B
:100540004F913F912F911F910F91FF90EF90DF906E
:10055000CF900F900BBE0F900FBE0F901F9018956D
:100560008DE08093810084E39CE0909389008093E8
:10057000880082E080936F001092850010928400C2
:10058000089593E89093B00091E09093B100809328
:10059000B300089590936C0280936B0226E330E0E1
:1005A00020930040009779F480EF90E090936802E8
:1005B0008093670280E491E090936A0280936902DD
:1005C00088E490E034C08130910579F480E491E0D2
:1005D000909368028093670280EF90E090936A02A4
:1005E0008093690288EE90E022C08230910579F410
:1005F00080EF90E0909368028093670280E491E03E
:1006000090936A028093690288E890E010C0039793
:1006100081F480E491E0909368028093670280EF18
:1006200090E090936A028093690288E290E0809360
:1006300000418AE290E08093004080E090E0909357
:100640000041809300418091670290916802019778
:1006500090930041809300418BE290E080930040B2
:1006600080E090E090930041809300418091690286
:1006700090916A0201979093004180930041089500
:10068000CF93873750F4883050F08D3350F48F314A
:1006900050F4803150F0C2E009C086E702C088E023
:1006A00004C0C0E003C0C1E001C0C3E021EB30E002
:1006B00020930040C0930041682F70E080E090E0FC
:1006C0000E94A4089B01AC0160E070E080EF94E41C
:1006D0000E940E080E94760870E002C0759567952A
:1006E000CA95E2F760930041CF9108950F931F934D
:1006F000CF93DF93CDB7DEB728970FB6F894DEBF60
:100700000FBECDBF29833A834B835C836D837E8389
:100710008F83988769817A812B813C814D815E81AD
:100720008F819885EAE2F0E0E09300407093004109
:10073000609300413093004120930041EBE2F0E0F0
:10074000E09300405093004140930041909300415A
:1007500080930041ECE2F0E0E09300402F5F3F4FD8
:10076000261B370B0196841B950B2817390790F42D
:10077000682F6770629FA001639F500D112473E082
:10078000969587957A95E1F7829FB001839F700DCA
:10079000112411C0622F6770689FA001699F500DDE
:1007A000112463E0369527956A95E1F7289FB001FB
:1007B000299F700D1124842F8770815028F0109389
:1007C000004100930041F9CFCA0123E09695879537
:1007D0002A95E1F7860F971F019708F110930041C2
:1007E0000093004110930041009300411093004199
:1007F0000093004110930041009300411093004189
:100800000093004110930041009300411093004178
:10081000009300411093004100930041DDCF2896E2
:100820000FB6F894DEBF0FBECDBFDF91CF911F9101
:100830000F910895EF92FF920F931F93CF93DF9341
:10084000CDB7DEB728970FB6F894DEBF0FBECDBF89
:1008500029833A834B835C836D837E838F83988760
:1008600089819A81EB80FC806D817E81AF81B88522
:100870002AE230E0209300409093004180930041B1
:10088000F0920041E09200412BE230E020930040E2
:100890007093004160930041B0930041A0930041E8
:1008A0002CE230E020930040E816F906A0F0A80101
:1008B0009B018A01A217B30760F04E5F5F4FF801FA
:1008C0000081118110930041009300412F5F3F4F41
:1008D000F0CF0196E9CF28960FB6F894DEBF0FBE91
:1008E000CDBFDF91CF911F910F91FF90EF900895B1
:1008F0000F931F93CF93DF93CDB7DEB728970FB633
:10090000F894DEBF0FBECDBF10926E0210926D0242
:100910001092700210926F021A82198280916702FF
:10092000909168020197482F9C838B831E821D82C1
:100930008091690290916A02019798878F83009154
:1009400073021091740220E03A815C8160E07E8144
:1009500098850E94760328960FB6F894DEBF0FBEE6
:10096000CDBFDF91CF911F910F91089586E08093C5
:10097000750080E8809374003F9A249A8FEC97E08A
:100980000197F1F700C0000047988FE39CE90197B9
:10099000F1F700C00000479A9FEF2DEE82E09150E2
:1009A00020408040E1F700C0000088E290E08093A2
:1009B000004081E190E0809300409FEF26E781E0D6
:1009C000915020408040E1F700C0000021E030E07D
:1009D0008BEC90E0809300402093004180EC90E00D
:1009E0008093004088E096E290930041809300411C
:1009F00020E130E081EC90E08093004020930041C2
:100A000085EC90E0809300408EE395E39093004165
:100A10008093004125EB30E087EC90E0809300402C
:100A20002093004121E030E086EF90E08093004089
:100A30002093004180E090E090930041809300413A
:100A400025E530E08AE390E0809300402093004168
:100A500081E090E00E94CA020E94780410926E0227
:100A600010926D021092700210926F021092740236
:100A7000109273028FEF9FEF909372028093710236
:100A800089E290E0809300409FE728E381E0915065
:100A900020408040E1F700C0000020E030E085E326
:100AA00090E08093004020930041EAE6F0E08081EE
:100AB000806280832C9A0895CF92DF92EF92FF920A
:100AC0000F931F93CF93DF93F0916D02E0916E022D
:100AD00020916F02309170028A30E1F410926E0220
:100AE00010926D02285F3F4F3093700220936F0287
:100AF0008091690290916A022817390708F4A2C010
:100B0000DF91CF911F910F91FF90EF90DF90CF90E9
:100B10000C94780490EE980F9F3508F093C0B901BB
:100B2000695F7F4F992787FD90958097A5E0A89FE3
:100B3000A001A99F500D112448565F4F8BE290E011
:100B40008093004030930041209300417093004116
:100B5000609300418F2F9E2F8C010C5F1F4FEAE2A4
:100B6000EE2EF12CFCE2CF2ED12C481B590B08178E
:100B7000190750F1E09200409093004180930041AA
:100B80009093004180930041C0920040FA01E80F29
:100B9000F91FE491D901F1E06A177B0798F0CF2F94
:100BA000CE2329F0C0917102D091720204C0C0918D
:100BB0007302D0917402D0930041C093004111960A
:100BC000FF0FEACF0196D3CF4AE250E040930040B6
:100BD00090930041809300419093004180930041A5
:100BE0008CE290E0809300406217730758F0809188
:100BF00073029091740290930041809300412F5FA3
:100C00003F4FF2CF80916D0290916E029C012A5F5E
:100C10003F4F30936E0220936D020B962091670236
:100C2000309168028217930768F010926E0210925A
:100C30006D0280916F0290917002089690937002FD
:100C400080936F02DF91CF911F910F91FF90EF90F2
:100C5000DF90CF9008951F93CF93DF93EC0110E0C6
:100C6000FE01E10FF11D8081882321F00E945C05C7
:100C70001F5FF6CFDF91CF911F91089590936E0281
:100C800080936D027093700260936F020895909349
:100C900072028093710270937402609373020895DC
:100CA0001F93CF93DF93EC0170936E0260936D02FC
:100CB0005093700240936F0210E0FE01E10FF11DAE
:100CC0008081882321F00E945C051F5FF6CFDF91B1
:100CD000CF911F910895E0916101F09162019F0110
:100CE0002F5F3F4F3093620120936101808308950D
:100CF0008A3034F090915201992321F097E303C098
:100D000090E301C097E5890F0E946B0681E0809314
:100D100051010895209153013091540140E028176A
:100D2000390720F04F5F281B390BF9CF309354015E
:100D30002093530180915101811102C0442319F085
:100D4000842F0C94780608958F929F92AF92BF9251
:100D5000CF92DF92EF92FF920F931F93CF93DF9387
:100D600000D0CDB7DEB7FE017196E190F1908F0112
:100D700085E5C82E81E0D82EF7018081882309F40B
:100D8000DBC0853231F09FEFE91AF90A0E945C0559
:100D9000F3CFF7012181203329F0F2E0EF0EF11CAF
:100DA000B12C07C0F7012281C70103967C01BB2447
:100DB000B39480ED820F8A3078F4F701A12C7F0183
:100DC00080ED820F8A3048F49A2D990F990FA90E61
:100DD000AA0CA80E2191F3CFA12CD0926201C0924F
:100DE000610110925101233609F461C04CF425329F
:100DF00009F46CC02835C1F1222309F49DC069C0F3
:100E0000233709F45DC01CF4243631F062C0253765
:100E100019F0283749F15DC0480192E0890E911C14
:100E2000F80180819181909354018093530124367D
:100E300061F497FF0AC091958195910990935401AF
:100E4000809353018DE20E946B0680E197E20E943D
:100E50008A0688EE93E00E948A0684E690E00E946B
:100E60008A068AE090E01BC081E0283509F080E026
:100E7000809352014801F2E08F0E911CF8018081AD
:100E80009181909354018093530180E090E10E94FE
:100E90008A0680E091E00E948A0680E190E00E944C
:100EA0008A06809153010E947806840112C048018D
:100EB000F2E08F0E911CF80180810E946B06F5CF45
:100EC000F801208131810E5F1F4F05C085E20E942D
:100ED0006B0625E531E0E0916101F091620110823D
:100EE0003093620120936101F901CF0101964081A5
:100EF000442329F01A141CF4AA94FC01F6CF909311
:100F00006201809361011A146CF4BB2011F080E33C
:100F100001C080E229833A830E945C05AA943A8149
:100F20002981F1CF5901F50181915F01882309F4ED
:100F300023CF0E945C05F7CF0F900F90DF91CF91E8
:100F40001F910F91FF90EF90DF90CF90BF90AF90E7
:100F50009F908F9008950C945C0580E880936100C9
:100F600010926100279A0E94B6040E94B002E0919C
:100F7000150121E02E0F4DE02403E0011124CD598D
:100F8000DE4F2FEF3FEF3A8329838DE190E0A0E021
:100F9000B0E08B839C83AD83BE838F839887A987C2
:100FA000BA8718828BE591E09C878B8752E05E0FB1
:100FB0005403E0011124CD59DE4F3A8329838DE497
:100FC00090E0A0E0B0E08B839C83AD83BE838F83F1
:100FD0009887A987BA87188285E891E09C878B87D4
:100FE00053E05E0F509315015403F0011124ED59A5
:100FF000FE4F3283218382EA90E0A0E0B0E0838359
:101000009483A583B68387839087A187B287108254
:1010100082EB91E0948783877894FFCF0CD0E6C071
:10102000DED040F0D5D030F021F45F3F19F0C7C0DA
:10103000511110C1CAC0EBD098F39923C9F35523BD
:10104000B1F3951B550BBB27AA27621773078407BB
:1010500038F09F5F5F4F220F331F441FAA1FA9F371
:1010600033D00E2E3AF0E0E830D091505040E69563
:10107000001CCAF729D0FE2F27D0660F771F881FC4
:10108000BB1F261737074807AB07B0E809F0BB0BB3
:10109000802DBF01FF2793585F4F2AF09E3F5105D7
:1010A00068F08DC0D7C05F3FECF3983EDCF38695C7
:1010B00077956795B795F7959F5FC9F7880F911D4D
:1010C0009695879597F90895E1E0660F771F881F39
:1010D000BB1F621773078407BA0720F0621B730BEC
:1010E000840BBA0BEE1F88F7E095089598D088F02E
:1010F0009F5790F0B92F9927B751A0F0D1F0660F04
:10110000771F881F991F1AF0BA95C9F712C0B1301E
:1011100081F09FD0B1E008959CC0672F782F882779
:10112000B85F39F0B93FCCF3869577956795B3955D
:10113000D9F73EF490958095709561957F4F8F4FCC
:101140009F4F0895E89409C097FB3EF490958095D1
:10115000709561957F4F8F4F9F4F9923A9F0F92F7D
:1011600096E9BB279395F695879577956795B795FB
:10117000F111F8CFFAF4BB0F11F460FF1BC06F5FE1
:101180007F4F8F4F9F4F16C0882311F096E911C0F3
:10119000772321F09EE8872F762F05C0662371F014
:1011A00096E8862F70E060E02AF09A95660F771F28
:1011B000881FDAF7880F9695879597F9089597F91C
:1011C0009F6780E870E060E008959FEF80EC0895ED
:1011D00000240A9416161706180609060895002416
:1011E0000A9412161306140605060895092E039490
:1011F000000C11F4882352F0BB0F40F4BF2B11F404
:1012000060FF04C06F5F7F4F8F4F9F4F089557FD62
:101210009058440F551F59F05F3F71F04795880F64
:1012200097FB991F61F09F3F79F0879508951216FB
:1012300013061406551FF2CF4695F1DF08C01616A7
:1012400017061806991FF1CF869571056105089458
:101250000895E894BB2766277727CB0197F908956F
:04126000F894FFCF30
:10126400FF0000000000000000000000000000007B
:101274000000000000FFFF000000A20000004D007D
:1012840000001D000000190000000000C8435B546A
:10129400313C003E54315D005B54323C003E5432DC
:0E12A4005D005B54333C003E54335D002D0072
:00000001FF
