:100000000C944C000C945E000C945E000C945E000A
:100010000C945E000C945E000C945E000C945E00E8
:100020000C945E000C945E000C945E000C945E00D8
:100030000C945E000C945E000C945E000C945E00C8
:100040000C945E000C945E000C945E000C945E00B8
:100050000C945E000C9476000C945E000C945E0090
:100060000C945E000C945E000C945E000C945E0098
:100070000C945E000C945E000C945E000C945E0088
:100080000C945E000C945E000C945E000C945E0078
:100090000C945E000C945E0011241FBECFEFD0E2E2
:1000A000DEBFCDBF11E0A0E0B1E001C01D92A230E3
:1000B000B107E1F70E94A7000C94CB000C9400005C
:1000C000E1E6F0E080E880831082279A2F988DB1D6
:1000D0008F7C8DB98EB180638EB982E084BD93E050
:1000E00095BD9DE797BD80936E0008951F920F9276
:1000F0000FB60F9211248F939F939CB194FD02C071
:1001000080E001C083E095FF02C091E089279091D3
:100110000001981B90FF09C08093000180910101AC
:1001200081509270890F809301019F918F910F9060
:100130000FBE0F901F901895F89480910101909137
:1001400001019170909301017894859508950E9422
:1001500060007894CFE7DC2FDD23D9F08FE097E2C1
:100160000197F1F700C000000E949C00992787FDCD
:1001700090958C0F911D8F3F910509F02CF48230E2
:10018000910524F0C82F03C0CFEF01C0C2E0D150C9
:0A019000E3CF1F9AE0CFF894FFCFF1
:00000001FF
